:03010900010801E9
:0401050075E1352249
:03010D00DFFE22F0
:07008F007FFF1200967FFFC6
:10009600AE07AF061EEF600C7FF512010D7FF5125D
:0500A600010D80EE22B7
:1000C700AD07AF051DEF600B12010512008F12007F
:0400D7008F80EF2205
:0A00F100C2A77F0A1200C7D2A7229F
:0A00FB00C2A67F0A1200C7D2A62297
:0B00DB007508011200F17F010200C750
:0B00E600E4F5081200FB7F010200C7D8
:1000AB00D2A012010520A007E50870031200DB3077
:0C00BB00A0F0E508B401EB1200E680E6BE
:03000000020003F8
:0C000300787FE4F6D8FD75810802004A01
:10000F000200ABE493A3F8E493A34003F68001F25C
:10001F0008DFF48029E493A3F85407240CC8C333F2
:10002F00C4540F4420C8834004F456800146F6DFC1
:10003F00E4800B0102040810204080900109E47E47
:10004F00019360BCA3FF543F30E509541FFEE493B6
:10005F00A360010ECF54C025E060A840B8E493A37D
:10006F00FAE493A3F8E493A3C8C582C8CAC583CAA8
:10007F00F0A3C8C582C8CAC583CADFE9DEE780BE60
:01010C0000F2
:00000001FF
