:03013200010801C0
:04012E0075E1352220
:03013600DFFE22C7
:0700D4007FFF1200DB7FFF3C
:1000DB00AE07AF061EEF600C7FF51201367FF512EF
:0500EB00013680EE2249
:1000F000AD07AF051DEF600B12012E1200D41200E8
:04010000D480EF2296
:0A011A00C2A77F0A1200F0D2A7224C
:0A012400C2A67F0A1200F0D2A62244
:0B01040075080112011A7F010200F0D3
:0B010F00E4F5081201247F010200F05B
:1000B50030A00D7F141200DB30A0137E007F0122DB
:0F00C50020A00B7F141200DB20A003E4FEFF221B
:10008F00D2A012012E1200B5EF4E7007E5087003D3
:10009F001201041200B5EF64014E70E6E508B401D9
:0600AF00E112010F80DCEC
:03000000020003F8
:0C000300787FE4F6D8FD75810802004A01
:10000F0002008FE493A3F8E493A34003F68001F278
:10001F0008DFF48029E493A3F85407240CC8C333F2
:10002F00C4540F4420C8834004F456800146F6DFC1
:10003F00E4800B0102040810204080900132E47E1E
:10004F00019360BCA3FF543F30E509541FFEE493B6
:10005F00A360010ECF54C025E060A840B8E493A37D
:10006F00FAE493A3F8E493A3C8C582C8CAC583CAA8
:10007F00F0A3C8C582C8CAC583CADFE9DEE780BE60
:0101350000C9
:00000001FF
